{"abi":[{"type":"function","name":"send","inputs":[{"name":"recipients","type":"address[]","internalType":"address payable[]"},{"name":"amounts","type":"uint256[]","internalType":"uint256[]"}],"outputs":[],"stateMutability":"payable"}],"bytecode":{"object":"0x6080604052348015600f57600080fd5b506102858061001f6000396000f3fe60806040526004361061001e5760003560e01c8063a645ff5f14610023575b600080fd5b610036610031366004610198565b610038565b005b8281146100a15760405162461bcd60e51b815260206004820152602d60248201527f526563697069656e747320616e6420416d6f756e747320617265206e6f74657160448201526c0eac2d840d2dc40d8cadccee8d609b1b606482015260840160405180910390fd5b60005b83811015610145578484828181106100be576100be610209565b90506020020160208101906100d3919061021f565b6001600160a01b03168383838181106100ee576100ee610209565b9050602002013560405160006040518083038185875af1925050503d8060008114610135576040519150601f19603f3d011682016040523d82523d6000602084013e61013a565b606091505b5050506001016100a4565b5050505050565b60008083601f84011261015e57600080fd5b50813567ffffffffffffffff81111561017657600080fd5b6020830191508360208260051b850101111561019157600080fd5b9250929050565b600080600080604085870312156101ae57600080fd5b843567ffffffffffffffff8111156101c557600080fd5b6101d18782880161014c565b909550935050602085013567ffffffffffffffff8111156101f157600080fd5b6101fd8782880161014c565b95989497509550505050565b634e487b7160e01b600052603260045260246000fd5b60006020828403121561023157600080fd5b81356001600160a01b038116811461024857600080fd5b939250505056fea26469706673582212200da5be9f1968a0ac73d531130cbdf4f6dfdce270f5dc48bc98290011058fe3de64736f6c634300081a0033","linkReferences":{}},"methodIdentifiers":{"send(address[],uint256[])":"a645ff5f"},"id":23}